:020000040800F2
:1000000070060020A5010008AD010008AF0100083E
:10001000B1010008B3010008B501000800000000AC
:10002000000000000000000000000000B701000810
:10003000B901000800000000BB010008BD01000874
:10004000BF010008BF010008BF010008BF01000890
:10005000BF010008BF010008BF010008BF01000880
:10006000BF010008BF010008BF010008BF01000870
:10007000BF010008BF010008BF010008BF01000860
:10008000BF010008BF010008BF010008BF01000850
:10009000BF010008BF010008BF010008BF01000840
:1000A000BF010008BF010008BF010008BF01000830
:1000B000BF010008BF010008BF010008BF01000820
:1000C000BF010008BF010008BF010008BF01000810
:1000D000BF010008BF010008BF010008BF01000800
:1000E000BF010008BF010008BF01000800F002F8CE
:1000F00000F048F80AA090E8000C82448344AAF17A
:100100000107DA4501D100F03DF8AFF2090EBAE877
:100110000F0013F0010F18BFFB1A43F0010318473B
:10012000900C0000B00C0000103A24BF78C878C1D1
:10013000FAD8520724BF30C830C144BF04680C60ED
:10014000704700000023002400250026103A28BF35
:1001500078C1FBD8520728BF30C148BF0B60704739
:10016000642900F07F80002070471FB500F06CFC10
:1001700004000020002100F005FE401C60601FBD4F
:1001800010B510BD00F03EFA1146FFF7EEFF00F08B
:10019000B3FD00F043FC03B4FFF7F2FF03BC00F033
:1001A00057FC00000948804709480047FEE7FEE782
:1001B000FEE7FEE7FEE7FEE7FEE7FEE7FEE7FEE717
:1001C00004480549054A064B70470000C90B000862
:1001D000ED00000870000020700600207002002072
:1001E000700200200FB4044910B503AA029800F071
:1001F00087F910BC5DF814FB040000202DE9F041E4
:100200000E460446002020622046E168884730B34D
:10021000252805D0D4E901219047206A401CF2E747
:10022000E168204600278847050018D0A5F1410065
:10023000192802D820354FF4006732462946204657
:100240002760FFF78DFF40B1012804D0F61D26F08E
:1002500007060836D8E7361DD6E72846DAE7206ACB
:10026000BDE8F0812DE9F0410646002410687529AB
:10027000314616A510D0AFF30080002802DA4042C4
:1002800013A507E031688A0701D512A502E04907E6
:1002900004D511A5012401E0AFF3008000210A225A
:1002A00006F1240709E0B0FBF2FCB0FBF2F302FB1D
:1002B0001C00303078541846491C0028F3D12346DE
:1002C0002A463046BDE8F04100F0C1B80000000009
:1002D0002D0000002B000000200000000FB400B52E
:1002E00089B00BA86A46009003480A9900F028F9E3
:1002F00009B05DF814FB0000000000202DE9FF5F4D
:100300001D464FF0FF3B91464FF000085F46D5E990
:100310000146A96901987F1C8847296A8246884757
:100320000028F6D1BAF1FF3F0CD0002E24F4C064AF
:1003300019DD600614D5BAF12B0F09D0BAF12D0FD3
:100340000ED103E0584604B0BDE8F09F44F4806449
:10035000A96901987F1C8847761E8246002E02DD1F
:10036000BAF1300F03D0B9F1000F26D032E0A969FD
:10037000761E01987F1C44F400748847002E824644
:1003800005DDBAF1780F06D0BAF1580F03D0B9F1F4
:10039000000F10D01EE0B9F1000F02D0B9F1100F1C
:1003A00018D1A969761E01987F1C24F4007488472F
:1003B0008246102002E0082000E00A20814609E081
:1003C000A96908FB0908761E01987F1C44F4007493
:1003D00088478246002E05DD4946504600F0A2F8C7
:1003E0000028EDDAE96901988847A00502D46FF08A
:1003F0000100A8E7E00725D1600613D5600502D506
:10040000C8F1000000E0404629680A1D2A6009681A
:10041000220501D5087015E0220701D5088011E0FA
:1004200008600FE02868011D29600068210502D5D9
:1004300080F8008006E0210702D5A0F8008001E0E6
:10044000C0F8008038467EE77047704770472DE956
:10045000F0470D4699469246044600F1240801688B
:10046000880604D5E06921F01001216000E0012038
:10047000A84201DD471B00E00027A1697A1902EBC1
:100480000900081AA0612078C00602D42046AFF304
:100490000080002608E0D4E901211AF80600904700
:1004A000206A401C761C20624E45F4DB2078C00692
:1004B0000AD52046AFF3008006E0D4E901213020C0
:1004C0009047206A401C2062381EA7F10107F4DC27
:1004D00007E0D4E9012118F805009047206A401C84
:1004E0002062281EA5F10105F3DC2046AFF3008051
:1004F0002078000602D50220BDE8F0870120FBE746
:10050000074B70B50D467B4400F02BF80446284697
:1005100000F074F810B14FF0FF3070BD204670BD90
:10052000DF0700003A2800D2303820F02002412AAC
:1005300001D3A2F13700884201D34FF0FF3070475A
:10054000034B7B449361034B7B44D36100F022B89F
:10055000830700006B00000001694A1C02610878F3
:10056000704700B58FB0CDE90131002105910549F3
:100570007944CDE9031011466846FFF73FFE0FB0FE
:1005800000BD0000E5FFFFFF026811441378016021
:1005900018467047D160054979445161044979444E
:1005A000116200211161114600F05AB8EDFFFFFF02
:1005B000AD000000704710B54FF0FF34C1688A02EB
:1005C0000FD5036B42689A420BD1014690F8252063
:1005D000104600F0FFF9401C01D1204610BD00205C
:1005E00010BD11F0C00FF8D1026941689142F4D9F1
:1005F0000268491E521CC0E90021F0E7007B00F0B0
:1006000080007047754600F013FAAE460500694653
:10061000534620F00700854618B020B5FFF7D0FDFF
:10062000BDE820404FF000064FF000074FF00008F3
:100630004FF0000B21F00701AC46ACE8C009ACE874
:10064000C009ACE8C009ACE8C0098D46704710B5D8
:10065000044600F0F1F90068005D00F0010010BDF3
:100660002DE9F34F4FF0000A0C4656468DB001209D
:100670000C9001F10C000B9062690B9801219047DE
:10068000051E2DD0252D2CD0216A8847C0B1626966
:100690000B9801219047216A88470028F7D16269A9
:1006A000411E0B98904700E0761CA1690D98884781
:1006B000216A88470028F7D1E1690D988847DBE770
:1006C000A1690D988847A842074601D1761CD3E757
:1006D000E1690D9888477F1C02D1BAF1000F6FD0F5
:1006E0006BE162690B9800273D46394690472A28FE
:1006F00004D162690B98012190470125DFF8D0826F
:1007000062690B9801219047A0F130010A290AD2B1
:100710004745E5DC07EB870100EB4107303FDFD4BD
:1007200045F01005ECE7E90601D46FF000476C28AE
:100730000AD04C2814D0682815D06A280DD0742807
:100740001CD07A281AD01DE062690B9801219047CD
:100750006C2802D045F0040514E045F002050DE0D8
:1007600045F020050AE062690B980121904768284E
:1007700002D045F0080505E045F4006562690B9874
:1007800001219047C4E9015765283DD019DC58285C
:100790007AD00CDC452837D004DC252826D0412827
:1007A0009ED131E046282FD0472899D12CE05B28F4
:1007B00077D0612828D063287CD0642823D15AE0E0
:1007C000F6E06F2848D008DC66281DD067281BD0CB
:1007D000692821D06E2816D127E0702845D07328CB
:1007E00068D0752847D078280DD14DE0A1690D98C3
:1007F0008847252805463FF469AFE1690D98884789
:100800006D1C3FF46AAFD8E00D9923466A466FF03D
:100810000100AFF30080C5E045F0400023464FF0F3
:1008200000026060A80736D43EE0E8077FF447AFD7
:100830002068011D21600068290501D506701BE7AD
:10084000290701D5068017E7A90703D5F117C0E9E5
:10085000006111E706600FE745F0400023464FF0C6
:1008600008026060A80716D41EE040F60E0125EAD3
:100870000100606016E045F0400023464FF00A0298
:100880006060A80707D40FE045F040006060A8074B
:1008900008D5234610220D996FF00100AFF30080B8
:1008A00080E007E0102223460D996FF00100FFF76A
:1008B00025FD77E04FF0000963284F46C8464B46B8
:1008C000CB4602D05B2806D038E0E80601D40120F0
:1008D000A060012732E06269D4F80CB00B980121C6
:1008E00090475E2807D14FF0010949466269D4F864
:1008F0000CB00B989047216939B900210A4603AB27
:1009000043F82120491C0829FADBD8B3216949B3EF
:1009100008F1010862690B98012190475D28F4D124
:10092000B9F1000F09D0002003A951F82020D243CB
:1009300041F82020401C0828F7DB03AB2069002881
:1009400020794FEA40701ED05B462246CDF80080E9
:10095000CDE901970D9900286FF0010020DAAFF37F
:1009600000801FE0C11703AA00EBD1614B1121F0F9
:100970001F0102EB8302411A1368012088400343E0
:100980001360C7E719E00D99224600286FF00100B7
:10099000009702DAAFF3008004E0AFF3008001E0DB
:1009A000AFF3008000280ADA401C06D10C9820B171
:1009B0004FF0FF300FB0BDE8F08F5046FAE7E9077F
:1009C00001D10AF1010A064400200C9054E600000F
:1009D000CCCCCC0CCA68431C0FD00D4B1A420CD1A6
:1009E000D3070AD081F825004B680B6300238B6086
:1009F00012F0C06F0B6003D004E04FF0FF3070477F
:100A000042F00072034B1A40034B1A43CA6070470E
:100A100080200800BFFFDFFF0010480010B504462B
:100A2000AFF300802046BDE81040FFF7B4BB0000E4
:100A3000004870470C00002010B500F005F8001DBC
:100A400010BD00BF41030000004870472C0000208B
:100A500001491820ABBEFEE7260002004FF0013C22
:100A600050F8042B51F8043B9A4221D1A2EB0C031D
:100A7000934313EACC1317D150F8042B51F8043BDD
:100A80009A4215D1A2EB0C03934313EACC130BD17A
:100A900050F8042B51F8043B9A4209D1A2EB0C0305
:100AA000934313EACC13DBD04FF00000704700BF34
:100AB000D01A01BAB1FA81F101F0180122FA01F05D
:100AC000CB40C1F12001DBB2C0B2C01A2CFA01F355
:100AD000D11A914311EAC311E6D17047704710B59E
:100AE00000F002F810BD00000CB50020019000904D
:100AF0003348006840F480303149086000BF304816
:100B0000006800F4003000900198401C01900098AB
:100B100018B90198B0F5A06FF1D12948006800F428
:100B2000003010B10120009001E0002000900098FA
:100B3000012843D12348006840F010002149086093
:100B40000846006820F0030008600846006840F08E
:100B5000020008601A484068194948600846406821
:100B600048600846406840F4806048600846406835
:100B700020F47C1048600846406840F4E810486063
:100B80000846006840F08070086000BF0C480068AC
:100B900000F000700028F9D00948406820F00300F8
:100BA000074948600846406840F00200486000BFBE
:100BB0000348406800F00C000828F9D10CBD000083
:100BC000001002400020024010B51348006840F0B9
:100BD00001001149086008464068104908400E4964
:100BE0004860084600680E4908400B4908600846FE
:100BF000006820F4802008600846406820F4FE0069
:100C000048604FF41F008860FFF769FF4FF00060F5
:100C10000449086010BD0000001002400000FFF809
:100C2000FFFFF6FE08ED00E0042010498861084649
:100C3000806940F480408861A0200D490860084622
:100C4000006840F48060086040F271200949088023
:100C50000420091D08800846008840F0080008802C
:100C60000846008840F40050088070470010024099
:100C7000040801400838014000BF0548008800F022
:100C800020000028F9D00248001D008870470000AD
:100C90000038014000BF0549098801F080010029A2
:100CA000F9D0C1B2014A121D1180704700380140CD
:100CB00007E0002100E0491C40F67B429142FADB4C
:100CC000401E0028F5DC704710B50446FFF7D4FF3E
:100CD00003460D2B03D11846FFF7DCFF0A23184605
:100CE000FFF7D8FF184610BD10B503460C4618464E
:100CF000FFF7D0FF10BD000008B5FFF795FF0CA06F
:100D0000FFF770FA13E01248008800F0200038B1B5
:100D1000694610A0FFF7E2FA0FA00099FFF762FA08
:100D200012A0FFF75FFA4FF4FA70FFF7C1FFEAE78E
:100D300050524F42414E444F20555341525431205E
:100D40002D3E53544D33324631303343380D0A0073
:100D50000038014025640000736520726563696294
:100D6000696F2D3E25640D0A000000006E6F207330
:100D700065207265636962696F206E6164610D0A46
:100D80000000000010B500290AD00878002807D01C
:100D900005487844FFF762FE002801D0002010BD0E
:100DA0000248784410BD00003E00000036000000FC
:100DB000E00E0008000000200C00000028010008E0
:100DC000EC0E00080C00002064060000440100083E
:100DD0001001000043000000F8FFFFFF004040400A
:100DE00040404040404041414141414040404040FE
:100DF00040404040404040404040404040050202AA
:100E00000202020202020202020202020220202068
:100E100020202020202020020202020202029090C4
:100E200090909090101010101010101010101010C2
:100E30001010101010101010020202020202888816
:100E40008888888808080808080808080808080822
:100E5000080808080808080802020202400000000A
:100E60000000000000000000000000000000000082
:100E70000000000000000000000000000000000072
:100E80000000000000000000000000000000000062
:100E90000000000000000000000000000000000052
:100EA0000000000000000000000000000000000042
:100EB0000000000000000000000000000000000032
:100EC0000000000000000000000000000000000022
:100ED0000000000000000000000000000000000012
:0C0EE00000000000010000000200000003
:04000005080001A549
:00000001FF
