:020000040800F2
:1000000060060020190200082102000823020008EF
:10001000250200082702000829020008000000004D
:100020000000000000000000000000002B0200089B
:100030002D020008000000002F0200083102000815
:1000400033020008330200083302000833020008BC
:1000500033020008330200083302000833020008AC
:10006000330200083302000833020008330200089C
:10007000330200083302000833020008330200088C
:1000800033020008330200083302000800000000B9
:100090000000000000000000000000003302000823
:1000A000330200083302000833020008330200085C
:1000B000330200083302000833020008330200084C
:1000C000330200083302000833020008330200083C
:1000D0003302000833020008330200080000000069
:1000E0003302000833020008330200080000000059
:1000F00000000000000000000000000033020008C3
:100100000000000033020008330200083302000838
:1001100000000000000000000000000000000000DF
:1001200033020008330200083302000833020008DB
:100130003302000800000000000000000000000082
:100140000000000000000000000000003302000872
:1001500033020008330200083302000833020008AB
:100160003302000833020008000000000000000015
:10017000000000000000000000000000000000007F
:100180000000000033020008000000000000000032
:100190003302000800F002F800F02EF80AA090E800
:1001A000000C82448344AAF10107DA4501D100F032
:1001B00023F8AFF2090EBAE80F0013F0010F18BFD1
:1001C000FB1A43F001031847E4020000F4020000A8
:1001D0000023002400250026103A28BF78C1FBD850
:1001E000520728BF30C148BF0B6070471FB500F0F1
:1001F00057F91FBD10B510BD00F031F81146FFF7DB
:10020000F5FF00F02BF900F04FF803B4FFF7F2FF11
:1002100003BC00F057F80000094880470948004730
:10022000FEE7FEE7FEE7FEE7FEE7FEE7FEE7FEE7A6
:10023000FEE7FEE704480549054A064B7047000003
:10024000F903000895010008600000206006002006
:1002500060020020600200207047704770477546BA
:1002600000F02CF8AE4605006946534620F0070022
:10027000854618B020B5FFF7DDFFBDE820404FF000
:1002800000064FF000074FF000084FF0000B21F080
:100290000701AC46ACE8C009ACE8C009ACE8C0094D
:1002A000ACE8C0098D46704710B50446AFF3008036
:1002B0002046BDE81040FFF7A8BF00000048704787
:1002C0000000002001491820ABBEFEE72600020016
:1002D000704700B500F040F83C2000F031F83020C5
:1002E00000F050F80A2000F02BF8302000F04AF817
:1002F000012000F025F8302000F044F8012000F043
:100300001FF8382000F03EF8012000F019F8012015
:1003100000F038F8032000F013F8062000F032F85F
:10032000012000F00DF80F2000F02CF8012000F063
:1003300007F8402000F026F8012000F001F800BD89
:1003400006E0002100E0491CB1F5616FFBDB401EB7
:100350000028F6DC704700000748006840F0010004
:1003600005490860054800680549084303490860D5
:100370008815886170470000303802400000024054
:100380005555050000B503464FF080700649886159
:1003900008464361401588610120FFF7D1FF4FF007
:1003A00000700149886100BD0000024000B50346AD
:1003B0004FF48070064988610846436140158861A2
:1003C0000020FFF7BDFF4FF000700149886100BDBC
:1003D0000000024030B505460C4615B1012D06D18E
:1003E00002E044F0800402E044F0C00400BF00BF1B
:1003F0002046FFF7C7FF30BD1448006840F4700086
:10040000124908601248006840F001001049086075
:1004100000200F49083108600D4800680D49084068
:100420000B4908600C48091D0860081F006820F48B
:100430008020091F0860002005490C3108604FF03A
:1004400000600249803908607047000088ED00E0D4
:1004500000380240FFFFF6FE10300024FFF739FF9E
:100460001DE000240BE0E1B20020FFF7B3FF5320B2
:10047000FFF79CFF4FF49670FFF762FF641C102C8F
:10048000F1DB002408E0E1B20120FFF7A3FF4FF405
:100490009670FFF755FF641C102CF4DB00BFE0E7FB
:1004A0004FF04070E1EE100A70470000BC040008F5
:0C04B0000000002060060000D0010008E1
:0400000508000219D4
:00000001FF
