:020000040800F2
:10000000600600206D0100087501000877010008F6
:10001000790100087B0100087D0100080000000054
:100020000000000000000000000000007F01000848
:10003000810100080000000083010008850100081C
:100040008701000887010008870100088701000870
:100050008701000887010008870100088701000860
:100060008701000887010008870100088701000850
:100070008701000887010008870100088701000840
:100080008701000887010008870100088701000830
:100090008701000887010008870100088701000820
:1000A0008701000887010008870100088701000810
:1000B0008701000887010008870100088701000800
:1000C00087010008870100088701000887010008F0
:1000D00087010008870100088701000887010008E0
:1000E00087010008870100088701000800F002F876
:1000F00000F02CF80AA090E8000C82448344AAF196
:100100000107DA4501D100F021F8AFF2090EBAE893
:100110000F0013F0010F18BFFB1A43F0010318473B
:10012000640300007403000000230024002500265F
:10013000103A28BF78C1FBD8520728BF30C148BF4A
:100140000B6070471FB51FBD10B510BD00F031F832
:100150001146FFF7F7FF00F067F900F04FF803B41E
:10016000FFF7F2FF03BC00F057F800000948804792
:1001700009480047FEE7FEE7FEE7FEE7FEE7FEE789
:10018000FEE7FEE7FEE7FEE704480549054A064BA1
:100190007047000055030008ED00000860000020D3
:1001A0006006002060020020600200207047704757
:1001B0007047754600F02CF8AE4605006946534678
:1001C00020F00700854618B020B5FFF7DDFFBDE839
:1001D00020404FF000064FF000074FF000084FF0AE
:1001E000000B21F00701AC46ACE8C009ACE8C0093F
:1001F000ACE8C009ACE8C0098D46704710B50446AC
:10020000AFF300802046BDE81040FFF7A8BF000014
:10021000004870470000002001491820ABBEFEE7EF
:10022000260002007047000000B503461846D917A3
:1002300003EB11710911A3EB01130DE001200A4931
:100240000860642000F0E4F84FF48030064908604C
:10025000642000F0DDF85B1E002BEFDC4FF4C8706B
:1002600000F0D6F800BD00001008014010B500F005
:1002700001F810BD0CB500200190009033480068D3
:1002800040F480303149086000BF3048006800F415
:10029000003000900198401C0190009818B9019816
:1002A000B0F5A06FF1D12948006800F4003010B11A
:1002B0000120009001E0002000900098012843D127
:1002C0002348006840F01000214908600846006893
:1002D00020F0030008600846006840F00200086053
:1002E0001A4840681949486008464068486008460E
:1002F000406840F4806048600846406820F47C1004
:1003000048600846406840F4E810486008460068C5
:1003100040F08070086000BF0C48006800F000707A
:100320000028F9D00948406820F0030007494860D8
:100330000846406840F00200486000BF034840683B
:1003400000F00C000828F9D10CBD0000001002409C
:100350000020024010B51348006840F00100114928
:10036000086008464068104908400E494860084641
:1003700000680E4908400B4908600846006820F4F0
:10038000802008600846406820F4FE0048604FF472
:100390001F008860FFF76AFF4FF0006004490860A3
:1003A00010BD0000001002400000FFF8FFFFF6FE45
:1003B00008ED00E004200C4988610846806940F49B
:1003C00080408861A020094908600815086040F253
:1003D0007120074908800420091D0880084600880C
:1003E00040F40050088070470010024004080140AB
:1003F0000838014000BF0548008800F020000028B0
:10040000F9D00248001D0088C0B270470038014092
:1004100007E0002100E0491C40F67B429142FADBF4
:10042000401E0028F5DC7047FFF7C4FF11488069C3
:1004300040F008000F49886102200F4908600F4909
:10044000086016E00E48008800F0200028B1FFF791
:10045000D1FF04462046FFF7E7FE08480C3000684D
:1004600080F0010005490C3108604FF4C870FFF7B7
:10047000CFFFE7E70010024000080140000C0140F8
:1004800000380140940400080000002060060000CD
:040490002801000837
:040000050800016D81
:00000001FF
