:020000040800F2
:100000007006002091010008990100089B0100087A
:100010009D0100089F010008A101000800000000E8
:10002000000000000000000000000000A301000824
:10003000A501000800000000A7010008A9010008B0
:10004000AB010008AB010008AB010008AB010008E0
:10005000AB010008AB010008AB010008AB010008D0
:10006000AB010008AB010008AB010008AB010008C0
:10007000AB010008AB010008AB010008AB010008B0
:10008000AB010008AB010008AB010008AB010008A0
:10009000AB010008AB010008AB010008AB01000890
:1000A000AB010008AB010008AB010008AB01000880
:1000B000AB010008AB010008AB010008AB01000870
:1000C000AB010008AB010008AB010008AB01000860
:1000D000AB010008AB010008AB010008AB01000850
:1000E000AB010008AB010008AB01000800F002F80A
:1000F00000F03FF80AA090E8000C82448344AAF183
:100100000107DA4501D100F034F8AFF2090EBAE880
:100110000F0013F0010F18BFFB1A43F0010318473B
:100120000006000020060000103A24BF78C878C1FD
:10013000FAD8520724BF30C830C144BF04680C60ED
:10014000704700000023002400250026103A28BF35
:1001500078C1FBD8520728BF30C148BF0B60704739
:10016000642900F07580002070471FB51FBD10B5D1
:1001700010BD00F033F91146FFF7F7FF00F096FAD3
:1001800000F051F903B4FFF7F2FF03BC00F058F997
:100190000948804709480047FEE7FEE7FEE7FEE71B
:1001A000FEE7FEE7FEE7FEE7FEE7FEE70448054957
:1001B000054A064B704700006D050008ED00000879
:1001C00070000020700600207002002070020020E5
:1001D0000FB4044910B503AA029800F0D1F810BC7E
:1001E0005DF814FB080000202DE9F0410E4604469E
:1001F000002020622046E168884730B3252805D0DA
:10020000D4E901219047206A401CF2E7E1682046CA
:1002100000278847050018D0A5F14100192802D809
:1002200020354FF400673246294620462760FFF705
:1002300097FF40B1012804D0F61D26F007060836C6
:10024000D8E7361DD6E72846DAE7206ABDE8F08110
:100250002DE9F0410646002410687529314616A59F
:1002600010D0AFF30080002802DA404213A507E067
:1002700031688A0701D512A502E0490704D511A506
:10028000012401E0AFF3008000210A2206F12407D7
:1002900009E0B0FBF2FCB0FBF2F302FB1C003030D3
:1002A00078541846491C0028F3D123462A46304684
:1002B000BDE8F04100F00BB8000000002D00000088
:1002C0002B000000200000007047704770472DE9A8
:1002D000F0470D4699469246044600F1240801680D
:1002E000880604D5E06921F01001216000E00120BA
:1002F000A84201DD471B00E00027A1697A1902EB43
:100300000900081AA0612078C00602D42046AFF385
:100310000080002608E0D4E901211AF80600904781
:10032000206A401C761C20624E45F4DB2078C00613
:100330000AD52046AFF3008006E0D4E90121302041
:100340009047206A401C2062381EA7F10107F4DCA8
:1003500007E0D4E9012118F805009047206A401C05
:100360002062281EA5F10105F3DC2046AFF30080D2
:100370002078000602D50220BDE8F0870120FBE7C7
:10038000074B70B50D467B4400F011F80446284633
:1003900000F020F810B14FF0FF3070BD204670BD66
:1003A0001303000001694A1C02610878704700B518
:1003B0008FB0CDE901310021059105497944CDE99E
:1003C000031011466846FFF70FFF0FB000BD000095
:1003D000E5FFFFFF007B00F080007047754600F0EE
:1003E0002BF8AE4605006946534620F007008546C7
:1003F00018B020B5FFF7DAFEBDE820404FF0000648
:100400004FF000074FF000084FF0000B21F00701FC
:10041000AC46ACE8C009ACE8C009ACE8C009ACE83F
:10042000C0098D46704710B50446AFF300802046E2
:10043000BDE81040FFF7A6BE00487047100000203E
:1004400001491820ABBEFEE72600020070470000FD
:100450004FF480300A49086000BF0948006800F482
:1004600000300028F9D00120054948600420886147
:100470000120C8610846C06940F00200C8617047A9
:100480000010024010B500F001F810BD0CB50020BE
:10049000019000903348006840F480303149086092
:1004A00000BF3048006800F4003000900198401C04
:1004B0000190009818B90198B0F5A06FF1D12948C2
:1004C000006800F4003010B10120009001E000202D
:1004D00000900098012843D12348006840F01000A4
:1004E000214908600846006820F0030008600846BB
:1004F000006840F0020008601A48406819494860E6
:100500000846406848600846406840F4806048609B
:100510000846406820F47C1048600846406840F473
:10052000E81048600846006840F08070086000BF2E
:100530000C48006800F000700028F9D009484068B5
:1005400020F00300074948600846406840F0020078
:10055000486000BF0348406800F00C000828F9D14B
:100560000CBD0000001002400020024010B51348EE
:10057000006840F0010011490860084640681049D1
:1005800008400E494860084600680E4908400B497B
:1005900008600846006820F480200860084640682B
:1005A00020F4FE0048604FF41F008860FFF76AFFE8
:1005B0004FF000600449086010BD000000100240C8
:1005C0000000FFF8FFFFF6FE08ED00E00A200B49EF
:1005D000086041F63F70C9040885C01088854FF453
:1005E0004C700883002088860846008C40F001008B
:1005F000088400208884012008807047000801409A
:100600000A48006840F02060084908604FF4FA503A
:100610000749088041200649103908800120044913
:1006200008390880024928390880704700080140CD
:10063000280400400F48806940F480400D498861DB
:10064000A0200D4908600846006840F480600860FA
:1006500045200A4908800420091D088008460088B2
:1006600040F0080008800846008840F400500880E8
:1006700070470000001002400408014008380140A3
:1006800000BF0549098801F080010029F9D0C1B2F5
:10069000014A121D118070470038014010B5034611
:1006A0000C461846FFF7ECFF10BD0000FFF7D0FE28
:1006B000FFF78CFFFFF7A4FFFFF7BCFF0AA0FFF7CF
:1006C00087FD10E000BF0F48008800F002000028FE
:1006D000F9D00C48243000880B49086008460168AE
:1006E0000AA0FFF775FDEDE76269656E76656E69D4
:1006F000646F2061206C6F732074696D65720D0AE0
:1007000000000000100400400000002076616C6FC3
:1007100072206C6569646F2D3E25640D0A0000002F
:100720004007000800000020100000002801000819
:100730005007000810000020600600004401000877
:1007400000000000000000000100000002000000A6
:04000005080001915D
:00000001FF
